:04000000020029329F
:03000B000203A944
:0100130032BA
:01001B0032B2
:03002300020230A6
:0B008200752F01753007E4F531F532F1
:0300900002002645
:030026000200A92C
:1000930075272F7528007529407526009000217556
:1000A300F0401203B722E4F533F534F535F536D2D3
:1000B300AFD2801200931203791201FF75370075D6
:1000C3003800753900753A00753B00753C00753D85
:1000D30000753E007E007F000EBE00010F8E048F70
:1000E30005C3EC94F4ED9401501F9003E8C007C0DE
:1000F3000612038CD006D007C007C0061203A5E57D
:1001030082D006D00770D180EF753F00754000752F
:1001130041007542000531E4B53102053285318273
:1001230085328375173F751800751940751A0A12C1
:100133000A7DAE31AF32C374789EE49F5014900BA6
:10014300AD75F0801202D790003F75F0401202D7D0
:1001530080FE90003F75F0401202D775823A12027A
:100163008E90002175F040120582AF82BF016BB201
:1001730080754D35754E00754F4075503375510080
:1001830075524090002175F0401207FB853582853A
:100193003683750E37750F0075104075110A1209F5
:1001A30071853382853483750E3B750F007510405E
:1001B30075110A12097190003775F0401202D77554
:1001C300822012028E90003B75F0401202D7900BF2
:1001D300B875F0801202D70200BF85218212028E09
:1001E30085228212028E85238212028E8524821238
:0C01F300028E85258212028E0200BF22BF
:0D0BAD0054696D65726F75743A20000D007B
:1001FF00C2AC750B00750A00750900750800C200C6
:10020F00438780759850538EBF538EFE53890F438B
:10021F008920758BFA758DFAC2ABD28ED2BCD2AC57
:10022F0022C0E0C007C006C001C000C0D075D0001A
:10023F00109802801A74F825084014AF080508EFCB
:10024F00250AFF5307077E00EF2401F8E599F21006
:10025F009902801EE50924FF920050161509AF0B75
:10026F00050BEF2409F9E3F59974FC250B50037581
:10027F000B00D0D0D000D001D006D007D0E032AFE5
:10028F008274FC250940FAC2AC300015AE0905098D
:10029F00EE250BFE5306037D00EE2409F8EFF280E6
:1002AF00048F99D200D2AC22E50860FCC2AC1508CD
:1002BF00AF0A050AEF2401F9E3FF74F8250A50038A
:1002CF00750A00D2AC8F8222AD82AE83AFF08D82E1
:1002DF008E838FF0120B8DFCA3AD82AE83ECFB608F
:1002EF002CBB0A1675820DC007C006C005C00312CD
:1002FF00028ED003D005D006D0078B82C007C00670
:10030F00C00512028ED005D006D00780C122AD8263
:10031F00AE83AFF07C00C3E50C9C4030C007C00635
:10032F00C005C0041202B7AB82D004D005D006D0EE
:10033F0007BB0D0280E0EC2DF8E43EF98F020C882C
:10034F008289838AF0EB120B08BB0ACAEC2DFDE4FD
:10035F003EFE8D828E838FF0E4120B0822AF09745C
:0A036F0004C39FF582228508822254
:03008D00750D00EE
:10037900750D00C2A9C28C538E7F5389F043890140
:10038900C28D22AE82AF83750D00C3E49EFEE49F49
:10039900FF8E8A8F8CC28DD2A9D28C22850D8222A2
:1003A900C2A9C28C758A00758C00750D0132AD82A7
:1003B900AE83AFF0740A2DFAE43EFB8F048A828B78
:1003C900838CF0E4120B08A3120B08A3120B08A3E9
:1003D900120B088D028E038F04F51B751C05F51D84
:1003E9008A828B838CF0C007C006C005120AE9D047
:1003F90005D006D00774052DFAE43EFB8F048A82E6
:100409008B838CF0120B8DFC600ABC010280057590
:1004190082FF802A8D828E838FF0C007C006C005B7
:100429001204CAD005D006D00774092DFDE43EFE9A
:100439008D828E838FF07401120B0875820022C29F
:1004490097904E2012038C1203A5E58260F9D2978A
:1004590090001412038C1203A5E58260F920975DC0
:100469007F0020971D0FBF64005017900001C0073F
:1004790012038CD007C0071203A5E582D00760F5E7
:1004890080E0EF24A5500575820380347F00309702
:100499001D0FBF64005017900001C00712038CD0D4
:1004A90007C0071203A5E582D00760F580E0EF24B5
:1004B900A55005758204800875820080037582FF46
:1004C90022D297758201227F007E007D008F04EC85
:1004D9002CFF8E042097060CBC3C0040F7900001CD
:1004E900C007C005C00412038CD004D005D007C0D2
:1004F90007C005C0041203A5E582D004D005D007C2
:1005090060EDBC3C004005758200806C90001EC007
:1005190007C00512038CD005D007C007C005120318
:10052900A5E582D005D00760F13097034307017C28
:100539000030972D0CBC3C005027900001C007C02B
:1005490005C00412038CD004D005D007C007C0052C
:10055900C0041203A5E582D004D005D00760ED8060
:10056900D08C06BC3C004005758200800B0DBD088F
:100579000050030204D68F822285824385834485F5
:10058900F0457C00C004120448E582D004600302EF
:10059900065BA943AA44AB45751B00751C05751D6F
:1005A9000089828A838BF0120AE9754600E546259F
:1005B90043F8E43544F9AA45854382854483854552
:1005C900F0C002C001C0001204D0AB82D000D0013B
:1005D900D002888289838AF0EB120B08054674FBE6
:1005E900254650C974042543F9E43544FAAB4574EA
:1005F900012543F8E43544FEAF4588828E838FF0A8
:10060900120B8DF88543828544838545F0120B8D45
:1006190028F874022543FDE43544FEAF458D828EEA
:10062900838FF0120B8D28F874032543FDE43544BC
:10063900FEAF458D828E838FF0120B8DFD28F889D0
:10064900828A838BF0120B8DF9B500047401800145
:10065900E4FC8C8222AD82AE83AFF07C00740A2D5B
:10066900FDE43EFE8D828E838FF0120B8DF8A3126E
:100679000B8DF9A3120B8DFAA3120B8DFBC3E49812
:10068900F8E499F9E49AFAE49BFBC3E8951BE99528
:100699001CEA951DEB951E50047C0180168D828EF7
:1006A900838FF0E4120B08A3120B08A3120B08A303
:1006B900120B088C82227582012285824785834824
:1006C90085F049E4FBFC74052547F8E43548F9AAA7
:1006D90049888289838AF0120B8DFA704674022543
:1006E90047F8E43548F9AF49888289838FF0120BBE
:1006F9008DF8881B751C0090000A120B23AE82AF7F
:100709008374032547F8E43548F9AD49888289831C
:100719008DF0120B8DF87D002EFEED3FFF8E038FBD
:10072900048036BA013374022547FDE43548FEAF2B
:10073900498D828E838FF0120B8DFF7D0074032506
:1007490047F9E43548FAAE4989828A838EF0120B5B
:100759008DF97E004DFBEE4FFC8B828C83228582C6
:100769004A85834B85F04CE4FBFC7405254AF8E483
:10077900354BF9AA4C888289838AF0120B8DFA705D
:100789003E854A82854B83854CF0120B8DF9891B76
:10079900751C0090000A120B23A882A983740125F5
:1007A9004AFDE4354BFEAF4C8D828E838FF0120BE0
:1007B9008DFD7F0028F8EF39F988038904802EBA66
:1007C900012B854A82854B83854CF0120B8DFE7F68
:1007D900007401254AF9E4354BFAAD4C89828A83C4
:1007E9008DF0120B8DF97D004FFBED4EFC8B828C49
:1007F900832285825385835485F05574052553FAE0
:10080900E43554FBAC558A828B838CF0120B8DFC3A
:1008190060030208E1A94DAA4EAB4F855382855466
:10082900838555F0120B8DF8881B751C0090000A02
:10083900C003C002C001120B23858256858357D09D
:1008490001D002D00374012553FDE43554FEAF55A0
:100859008D828E838FF0120B8D7F002556FDEF352B
:1008690057FF89828A838BF0ED120B08A3EF120BD5
:1008790008AD50AE51AF5274022553F9E43554FA1C
:10088900AB5589828A838BF0120B8DF9891B751CF4
:100899000090000AC007C006C005120B23858256C6
:1008A900858357D005D006D00774032553F8E4355E
:1008B90054F9AB55888289838BF0120B8D7B002507
:1008C90056F8EB3557FB8D828E838FF0E8120B08B3
:1008D900A3EB120B08020970BC0102800302097024
:1008E900AD4DAE4EAF4F8553828554838555F01279
:1008F9000B8DFB7C0074012553F8E43554F9AA5596
:10090900888289838AF0120B8D7A004204EA4203B5
:100919008D828E838FF0EC120B08A3EB120B08ADBE
:1009290050AE51AF5274022553FAE43554FBAC551D
:100939008A828B838CF0120B8DFC7A007403255309
:10094900F8E43554F9AB55888289838BF0120B8D05
:10095900F87B004202EB42048D828E838FF0EA120B
:100969000B08A3EC120B08228582128583137514D8
:1009790000E514FB3395E0FCEB250EFBEC350FFA93
:10098900AC10A8117900881B891C851282851383F4
:10099900C004C003C002C001C000120B40AD82D028
:1009A90000D001D002D003D00474302D8B828A8309
:1009B9008CF0120B088B828A838CF0120B8D24C663
:1009C90050158B828A838CF0120B8D2407FF8B8242
:1009D9008A838CF0120B08881B891C851282851367
:1009E90083120AC08582128583130514E512451303
:1009F900600302097AE51414FFE514FD3395E0FE5E
:100A0900ED250EFDEE350FFEAC108D828E838CF038
:100A1900E4120B08F515C3E51564808FF063F080C7
:100A290095F0504FE515FC3395E0FDEC250EFCEDF6
:100A3900350FFDAB108C828D838BF0120B8DF51663
:100A4900EFF83395E0F9E8250EF8E9350FF9AA1022
:100A5900888289838AF0120B8DFE8C828D838BF0BC
:100A6900120B08888289838AF0E516120B0805158E
:100A79001F80A322AE82E583FF30E728740AB51AE6
:100A890023AB17AC18AD198B828C838DF0742D12A2
:100A99000B0874012BF517E43CF5188D19C3E49E76
:100AA900FEE49FFF85170E85180F851910851A1109
:100AB9008E828F830209717A10E4FBFCE58225E0BE
:100AC900F582E58333F583EB33FBEC33FCEB951BC4
:100AD900F5F0EC951C4006FCABF0438201DADD220F
:06005800E478FFF6D8FD7C
:100AE900AC82AD83AE1CAF1DBE0004EF600C1F0FBE
:0F0AF900E51B120B08A3DEFADFF88C828D832237
:100036007900E94400601B7A00900BBA780175A03C
:1000460000E493F2A308B8000205A0D9F4DAF27529
:02005600A0FF09
:100B080020F71130F6138883A88220F509F6A88308
:100B18007583002280FEF280F5F022E582851BF0C5
:100B2800A4C582C0F0851CF0A4D0F025F0C583854B
:100B38001BF0A42583F58322E51B451C60467A013A
:100B4800E51B25E0F51BE51C334012F51CE58295F5
:100B58001BE583951C40030A80E6C3E51C13F51CBE
:100B6800E51B13F51BC3E582951BF5F0E583951C82
:100B78004005F58385F082C3E51C13F51CE51B13BE
:050B8800F51BDAE1227B
:10005E00780CE84400600A790175A000E4F309D831
:10006E00FC7800E84400600C7900900001E4F0A3F5
:04007E00D8FCD9FAD7
:0D002900758157120BA9E5826003020026C5
:100B8D0020F71430F6148883A88220F507E6A88391
:100B9D0075830022E280F7E49322E0227582002221
:00000001FF
